:04000000020049327F
:03000B000200C22E
:0100130032BA
:01001B0032B2
:0100230032AA
:01002B0032A2
:01003300329A
:01003B003292
:030043000201D7E0
:1800A200753A95753B13753CB4753D12753EA0753F127540D6754112AA
:0300BF00020046F6
:0300460002065758
:2000C200C0E0C0D0758CF8758A300522E4B5220C0523B523070524B524020525D0D0D0E053
:2000E2003275A15575A1AA43B1102243D10490000212071C53D1FB22C2EA75E2007EC07F9B
:20010200008EE48FE57E007F018EE68FE775EB4475D40275D6027E007F008EEC8FED7E80E2
:200122007F008EEE8FEF75EA4475D20275DE0275DC0275E30075D18075E22943D10175D8B0
:20014200FF75E107D2EA22754C42754D00754E40754F0575500090008075F00012121075EF
:20016200D30553D2FC22754C47754D00754E40754F057550009000C075F00012121075D5D4
:200182000553D4FC22120149020168120A637E007F007C007D00EC2442F97A007B408E00C9
:2001A200E804F51289828A838BF0C007C006C005C004120FA9D004D005D006D00774052CDC
:2001C200FCE43DFD0EBE00010FC3EE9402EF6480948040C222C021C0E0C0F0C082C083C05F
:2001E20007C006C005C004C003C002C001C000C0D075D00020D903020613743F55D9FFFED7
:20020200BE0003020606BF2003020597BF2102805CBF22028040BF23028024BF2402800837
:20022200BF3002805F02061175DF0074FC55DE4402F5DEAEDE7F006306408EDE0206117515
:20024200D70074FC55D64402F5D6AED67F006306408ED602061175D50074FC55D44402F5D2
:20026200D4AED47F006306408ED402061175D30074FC55D24402F5D2AED27F006306408E61
:20028200D2020611AFDBBF08028003020576900006E0F52B900007E07006E52B2480500394
:2002A200752B7F7F00900001E0F52A900000E0FE546060357401B52A030205787402B52A2C
:2002C200030205787403B52A030205787409B52A03020578740AB52A03020578740BB52AA7
:2002E200030205787FFF020578E52A24F55003020572E52A240B83F582E52A240F83F58314
:20030200E4735B28729472021A720B1F780504050405040305040405900003E0FEBE0102F7
:200322008012BE0202801ABE03028022BE2202804E0203B5752FE67530127531807E128087
:2003420074752FF87530127531807E3B8067900002E0FDBD04005023ED2D243AF987040966
:2003620087058C2F8D30753180AB2FAC30AD318B828C838DF0121280FE803A7EFF80369005
:200382000004E0FDBD02005026900004E075F031A42433FC741335F0FD8C2F8D30753180FD
:2003A2007E31900004E0FDBD010B752C0180067EFF80027EFFC3EE952B50028E2BC3E52B5F
:2003C2009408920040067D087E008004AD2B7E008D07852F4C85304D85314E8F4F7550008D
:2003E20090000075F000C007121210D007E52BC39FF52BEF252FF52FE43530F5300205784E
:20040200900002E0F52B020578900000E52EF074FF252B40030205787F0102057890000220
:20042200E0F52E020578900000E0FE53061F7D00BE024EBD004B900004E0FEBE0102803AD2
:20044200BE8102802BBE8202801CBE8302800DBE842D74BC55DE4402F5DE802574BC55D615
:200462004402F5D6801B74BC55D44402F5D4801174BC55D24402F5D2800753D27380027F51
:20048200FF900000E0FE541F70030205787FFF020578900000E0541F702F900003E0FD7E1B
:2004A20000900002E0FC7B004206EB4205BE0114BD00119012FFE493FE30E5030205787F0A
:2004C200FF0205787FFF020578900000E0FE53061F7D00BE0205BD000280028078900003AB
:2004E200E0FD7E00900002E0FC7B004206EB4205EE4D705D900005E0FD7E00900004E0FCD4
:200502007B004206EB4205BE8105BD00028034BE8205BD00028022BE8305BD00028010BE34
:20052200842BBD002874BF55DE4403F5DE804774BF55D64403F5D6803D74BF55D44403F519
:20054200D4803374BF55D24403F5D280297FFF80257FFF80217FFF801D900000E4F09000B0
:2005620001F074FE252B50047F02800AAF2B80067FFF80027FFFBFFF09752AFF75DCCF0202
:200582000611EF60088FDD75DCC002061175DD0075DCC0807A7405B52A0280507406B52A75
:2005A2005BC3E52B9408920040067E087F008004AE2B7F00852F4C85304D85314E8E4F755E
:2005C200500090000075F000C006121210D006E52BC39EF52BEE252FF52FE43530F5308E11
:2005E200DDAEDC7F006306408EDC8023E5E35480FFE52BFE4FF5E375DC02801375DD0075E0
:20060200DC02800BE5DBAEDC7F006306808EDCC2D930D81875DC0275D20275D40275D60264
:2006220075DE0275E300C2DAC2D9C2D810DA028004E5DA800375D8FFD0D0D000D001D00229
:20064200D003D004D005D006D007D083D082D0F0D0E0D021321206ED90000512071C12074F
:200662003E1200FA12081F1208E67E007F007C007D00EC2442F98E03EB04F774052CFCE4B8
:200682003DFD0EBE00010FC3EE9402EF6480948040E0758911758CF8758A30D28CD2A9D212
:2006A200AF75D30075D50075D70075DF00752C00E522C39526FCE5239527FDE5249528FEB0
:2006C200E5259529FFC374289CE49DE49EE49F500EB2B085222685232785242885252912BE
:0B06E200018DE52C60CA12018780C565
:2012A000140332004E0045005300320053004E004500530022034E00450053002F00530007
:2012C0004E00450053002000470061006D00650070006100640010035200610070006800BB
:2012E0006E00650074001201100100000008501D2D6000000302000109023B00020100A092
:20130000320904000001030000010921110100012231000705810310000209040100010345
:201320000000010921110100012231000705820310000205010904A1010901A1008501098A
:20134000300931150026FF0075089502810205091901290C150025017501950C8102950487
:201360008103C0C005010904A1010901A100850209300931150026FF007508950281020539
:19138000091901290C150025017501950C810295048103C0C00403090476
:2006ED0075A15575A1AA74F855B94403F5B975A10022AE82E583C313CE13CEC313CE13CE79
:20070D00FFEE4F600905A11EBEFF011F80F322AE82AF83EE4F60159003E8C007C0061206BD
:20072D00FFD006D0071EBEFF011F80E72243C61022C29FD29EC29DC2CDC2CC43878075082D
:20074D0086750901E4F50AF50B754C0AF54DF54EF54F850882850983850AF0E50B12112836
:20076D00AC828C0C754C0AE4F54DF54EF54F850882850983850AF0E50B1211AB858208853D
:20078D00830985F00AF50B74FB250C5019AC08AD09AE0AAF0B74012CF508E43DF509E43E7D
:2007AD00F50AE43FF50B740F55894420F58943C9A0AF08C3E49FF58DD28ED299D29C221031
:2007CD00980280FB8599822285829910990280FB22C2C7D2C5D2C475C2D92210C00280FB18
:2007ED0085C182228582C130C1FDD2C122AF8275A15575A1AAEF600543B101800353B1FE6D
:0B080D0075A10075FF00228582FF220C
:0500BA00E4F50DF50E58
:20081800780FE654BFF622780FE64440F622780FE654DFF6C2B130951CD2B290000C1206FD
:20083800FF209511C2B290000C1206FF309506780FE64420F6D2B130951CD2B290000C128C
:2008580006FF209511C2B290000C1206FF309506780FE64420F6227F00D2B290000CC00774
:200878001206FFD007C2B27E007C007D00900006C007C006C005C0041206FFD004D005D04B
:2008980006D007C2B320940ABC1308BD00057F0180010E900006C007C006C005C0041206C4
:2008B800FFD004D005D006D007D2B30CBC00010DC3EC9418ED6480948040B2780FE654EF8E
:2008D800F6EF6009BE1706780FE6441FF6225396F043970F4392F04393F0D2B3C2B2780F22
:2008F800E654F0F6780FE620E611780FE64440F6120A63780FE654BFF68003120A63120844
:200918006F0208267F007E007D007C00D2B290000CC007C006C005C0041206FFD004D00534
:20093800D006D007C2B27A007B00900006C007C006C005C004C003C0021206FFD002D0039C
:20095800D004D005D006D007C2B38F01E929FF8E01E929FE20940343070120950343060170
:20097800900006C007C006C005C004C003C0021206FFD002D003D004D005D006D007D2B397
:200998000ABA00010BC3EA9408EB64809480409A7A007B00900006C007C006C005C004C008
:2009B80003C0021206FFD002D003D004D005D006D007C2B38D01E929FD8C01E929FC2094E7
:2009D80003430501209503430401900006C007C006C005C004C003C0021206FFD002D003C6
:2009F800D004D005D006D007D2B30ABA00010BC3EA9408EB64809480409A7A007B009000A9
:200A180006C007C006C005C004C003C0021206FFC2B39000061206FFD002D003D004D00596
:200A3800D006D007D2B30ABA00010BC3EA9408EB6480948040C8900140EFF0900142EEF007
:200A5800900144EDF0900146ECF0227F007E007D007C00780FE630E40302091C780FE620C9
:200A7800E503020C64D2B290000CC007C006C005C0041206FFC2B290000C1206FFD2B1907D
:200A980000061206FFD004D005D006D007E4F510F511C2B3900006C007C006C005C00412A9
:200AB80006FFD004D005D006D0078F03EB2BFF8E03EB2BFE20940343070120950343060173
:200AD800D2B3900006C007C006C005C0041206FFD004D005D006D0070510E4B5100205118A
:200AF800C3E5109408E5116480948040A5900140EFF0900142EEF07A007B00C2B390000656
:200B1800C007C006C005C004C003C0021206FFD002D003D004D005D006D007EFC313FFEE5E
:200B3800C313FE209403430780209503430680D2B3900006C007C006C005C004C003C00211
:200B58001206FFD002D003D004D005D006D0070ABA00010BC3EA9408EB64809480409CC2D1
:200B7800B1900006C007C006C005C0041206FFD004D005D006D007E4F510F511C2B390009F
:200B980006C007C006C005C0041206FFD004D005D006D0078D03EB2BFD8C03EB2BFC2094BC
:200BB80003430501209503430401D2B3900006C007C006C005C0041206FFD004D005D0060A
:200BD800D0070510E4B510020511C3E5109408E5116480948040A5900144EDF0900146ECB4
:200BF800F07A007B00C2B3900006C007C006C005C004C003C0021206FFD002D003D004D0F2
:200C180005D006D007EDC313FDECC313FC209403430580209503430480D2B3900006C007AC
:200C3800C006C005C004C003C0021206FFD002D003D004D005D006D0070ABA00010BC3EA39
:200C58009408EB64809480409C020D84D2B290000CC007C006C005C0041206FFD004D00598
:200C7800D006D007C2B2E4F510F511900006C007C006C005C0041206FFD004D005D006D03A
:200C980007C2B38F03EB2BFF8E03EB2BFE8D03EB2BFD8C03EB2BFC20940343070120950376
:200CB800430601209603430501209703430401900006C007C006C005C0041206FFD004D067
:200CD80005D006D007D2B30510E4B510020511C3E5109408E51164809480408F900140EF1E
:200CF800F0900142EEF0900144EDF0900146ECF07A007B00900006C007C006C005C004C075
:200D180003C0021206FFD002D003D004D005D006D007C2B3EFC313FFEEC313FEEDC313FD29
:200D3800ECC313FC209403430780209503430680209603430580209703430480900006C083
:200D580007C006C005C004C003C0021206FFD002D003D004D005D006D007D2B30ABA000144
:200D78000BC3EA9408EB648094804088780FE620E603020E49BFFF17780FE6540FFB740178
:200D98004B780F540FF5F0E654F045F0F68015780FE6540FFB740E5B780F540FF5F0E65486
:200DB800F045F0F6BEFF17780FE6540FFB74024B780F540FF5F0E654F045F0F68015780F60
:200DD800E6540FFB740D5B780F540FF5F0E654F045F0F6BDFF17780FE6540FFB74044B78DE
:200DF8000F540FF5F0E654F045F0F68015780FE6540FFB740B5B780F540FF5F0E654F045B7
:200E1800F0F6BCFF17780FE6540FFB74084B780F540FF5F0E654F045F0F68015780FE654F6
:200E38000FFB74075B780F540FF5F0E654F045F0F6780FE6540F30E0067A007B0080048FA8
:200E5800027B00900141EAF0780FE6540F30E1067B007F0080048E037F00900143EBF078B5
:200E78000FE6540F30E2067E007F0080048D067F00900145EEF0780FE6540F30E3067E003C
:200E98007F0080048C067F00900147EEF022E582FF30E0047582FF22EF30E104758200229F
:200EB80075828022E582FF30E2047582FF22EF30E3047582002275828022AF8274805FFCB5
:200ED800E4C423CCC423541F6CCC541FCC6CCC30E40244E074405FFBE4A2E7CB33CB33A207
:200EF800E7CB33CB33CB540330E10244FCEC420374205FFCE4C423CCC423541F6CCC541FC6
:200F1800CC6CCC30E40244E0EB4204530710E4A2E713CF13CFEF4CF58222AD82AE83AFF0DC
:200F3800121280FC74805CF9E4A2E7C933C933C9540130E00244FE74405CF8E4C403C8C49A
:200F580003540768C85407C868C830E20244F8E9420074205CF9E4C423C9C423541F69C914
:200F7800541FC969C930E40244E0E84201530410E4A2E713CC13CCEC42010DBD00010E8D5F
:200F9800828E838FF0121280540FC454F049F5822285821385831485F015E5126006E51222
:200FB80024FB500475820022AB127C00EB24FFF516EC34FFF517E5134514700302112474A1
:200FD800012513F518E43514F51985151AE5162516FFFD3395E0FEED2440FDEE3401FE8DF0
:200FF800828E83E0F582C007C006C005120EA6AC82D005D006851882851983851AF0EC1231
:20101800126574022513F518E43514F51985151A8D828E83E0F582C006C005120EBCAC828B
:20103800D005D006D007851882851983851AF0EC121265780FE6540FFC8516F005F07518F9
:2010580001751900800BE5182518F518E51933F519D5F0F28C037C00E5185203E519520470
:20107800EB4C603E74032513F518E43514F51985151A8D828E83E0F582120ED2AC828518A4
:2010980082851983851AF0EC12126574042513FAE43514FBAC158A828B838CF0E4121265FB
:2010B800806A74032513F518E43514F51985151A8E047E008D828C838EF0C007120F32AE0F
:2010D80082D007851882851983851AF0EE12126574042513FCE43514FDAE150FEF3395E01A
:2010F800FBEF2440F582EB3401F583E0FF5307F0E4CFC4540F6FCF540FCF6FCF30E3024471
:10111800F0FB8C828D838EF0EF12126575820522AA
:20112800F9E54C454D454E454F60777800C308E54F20E73BE54C25E0F54CE54D33F54DE531
:201148004E33F54EE54F33F54FE582954CE583954DE5F0954EE9954F50D4C3E54F13F54F8F
:20116800E54E13F54EE54D13F54DE54C13F54CE582954CFCE583954DFDE5F0954EFEE99513
:201188004F4007F98EF08D838C82C3E54F13F54FE54E13F54EE54D13F54DE54C13F54CD861
:0311A800CEE9226B
:2011AB00FB7A20E4FCFDFEFFE5822582F582E58333F583E5F033F5F0EB33FB4017DAE9807D
:2011CB0042E5822582F582E58333F583E5F033F5F0EB33FBEC33FCED33FDEE33FEEF33FFAC
:2011EB00EC954CED954DEE954EEF954F4013EC954CFCED954DFDEE954EFEEF954FFF438256
:05120B0001DABEEB2238
:06007800E478FFF6D8FD5C
:20121000AD82AE83AFF08D518E528F53854C54854D55854E56A84FA9508803890418B8FFD3
:201230000119EB4C60258554828555838556F0121280FCA38582548583558D828E838FF0AB
:15125000EC121265A3AD82AE8380CE8551828552838553F02227
:200056007900E94400601B7A00901399784875A001E493F2A308B8000205A0D9F4DAF2755C
:02007600A0FFE9
:1B12650020F71130F6138883A88220F509F6A8837583002280FEF280F5F02288
:20007E007800E84400600A794075A001E4F309D8FC7808E84400600C7901900140E4F0A3F7
:04009E00D8FCD9FAB7
:0D00490075815612129CE58260030200468C
:1C12800020F71430F6148883A88220F507E6A88375830022E280F7E49322E0227D
:04129C007582002235
:00000001FF
